:100000000C945D000C94B70D0C94900D0C9485002D
:100010000C9485000C9485000C9485000C9485004C
:100020000C9485000C9485000C9485000C9485003C
:100030000C9485000C9485000C9485000C9485002C
:100040000C94460D0C9485000C9485000C9485004E
:100050000C9485000C9485000C9485000C9485000C
:100060000C9485000C9485000000000024002700FB
:100070002A0000000000250028002B0004040404CE
:100080000404040402020202020203030303030342
:10009000010204081020408001020408102001021F
:1000A00004081020000000080002010000030407FB
:1000B00000000000000000005B1311241FBECFEF02
:1000C000D8E0DEBFCDBF11E0A0E0B1E0E0E4F1E3B5
:1000D00002C005900D92A633B107D9F726E0A6E33A
:1000E000B1E001C01D92AF3EB207E1F710E0CDE5EF
:1000F000D0E004C02197FE010E949E15CC35D107A7
:10010000C9F70E9494130C949E180C940000089553
:100110000895FC01848583FF0DC084A195A1A6A14B
:10012000B7A1448D558D668D778D841B950BA60BDD
:10013000B70B03C080E090E0DC01811520E8920756
:10014000A105B10520F08FEF9FE7A0E0B0E0089592
:10015000089580E090E00895EF92FF921F93CF936F
:10016000DF93FC01208120FF32C0EC017C01F7E02D
:10017000EF0EF11C4B815C816D817E81E981FA81FA
:100180009701808191810E94FF0D182F811102C07B
:1001900010E01EC0888181FD04C088818E7F888325
:1001A00017C0E981FA8144855585668577858B81FD
:1001B0009C81AD81BE81480F591F6A1F7B1F97012B
:1001C000808191810E94FF0D8111E7CFE1CF11E085
:1001D000812FDF91CF911F91FF90EF900895FF92B3
:1001E0000F931F93CF93DF931F92CDB7DEB78C0190
:1001F000FC0180899189A289B3899C01AD0175E0D8
:1002000056954795379527957A95D1F7F22FFF7038
:10021000FF2E11F0611114C0BE016F5F7F4FC80146
:100220000E94A90F813019F080E090E01AC0F80117
:1002300080899189A289B3894F96A11DB11D04C0FF
:100240008096A11DB11DF801808B918BA28BB38B81
:10025000F801868197818796F0E2FF9E800D911DBF
:1002600011240F90DF91CF911F910F91FF9008956E
:10027000CF93DF931F92CDB7DEB7BE016F5F7F4F85
:100280000C960E94A90F019719F4898190E002C091
:100290008FEF9FEF0F90DF91CF9108958F929F92F4
:1002A000AF92BF92CF92DF92EF92FF920F931F9384
:1002B000CF93DF931F92CDB7DEB78C01FC01848C06
:1002C000958CA68CB78CC08CD18CE28CF38CBE0143
:1002D0006F5F7F4F0C960E94A90F019721F49981BF
:1002E000892F90E002C08FEF9FEF8F3FFFEF9F07B6
:1002F00049F0F801848E958EA68EB78EC08ED18E71
:10030000E28EF38E0F90DF91CF911F910F91FF90AE
:10031000EF90DF90CF90BF90AF909F908F90089517
:10032000FC018081811114C080E2DF01982F1D92B1
:100330009A95E9F777836683DB0115969C91903156
:1003400019F0903229F480E4808381E0828308955B
:1003500080E00895CF93CFB7F89480913801811150
:1003600027C0E6E8F0E08491EAE9F0E09491E82F14
:10037000F0E0EE0FFF1FE859FF4FA591B491EC910B
:10038000E92321F461E08AE00E94780C61E08AE0D0
:100390000E94C40C8CB580618CBD8CB580648CBD12
:1003A00061E08DE00E94C40C61E08BE00E94C40C0F
:1003B000809138018F5F80933801CFBFCF9108952E
:1003C000CF93DF9383B7817F846083BF83B78160DE
:1003D00083BFE4E6F0E080818F6E8083A0E0B1E02F
:1003E00087E890E013969C938E931297C9E6D0E02D
:1003F0008881837F8883E99A83B7816083BF8895EA
:1004000083B78E7F83BF83B78E7F83BFE99885E2F2
:100410009CE013969C938E931297808180718083C9
:10042000DF91CF9108958EBD00000DB407FEFDCF82
:100430008EB50895CF93DF93D82FC62F60E089E063
:100440000E94780C8D2F0E9413028C2F0E941302A1
:1004500061E089E0DF91CF910C94780CCF93C82FA5
:1004600060E089E00E94780C8C2F80680E94130263
:1004700080E00E941302C82F61E089E00E94780C9E
:100480008C2F90E0CF9108958CBD9DBD0895CF93A2
:10049000DF93FC012381211110C0EC010180F28166
:1004A000E02D808191810E944402E981FA8160E01F
:1004B00082810E94780C81E08B83DF91CF91089537
:1004C000EF92FF921F93CF93DF9300D000D0CDB770
:1004D000DEB77C01162F29833A834B835C83FC01B2
:1004E0008381811103C0C7010E9447020E94930FBC
:1004F000812F80640E94DE0D8C810E94DE0D8B8135
:100500000E94DE0D8A810E94DE0D89810E94DE0D2F
:10051000112311F087E801C085E90E94DE0D1C302F
:1005200011F40E94E30D10E00E94E30DF7018483B3
:1005300087FF04C01F3F11F01F5FF6CF0F900F9091
:100540000F900F90DF91CF911F91FF90EF90089542
:10055000EF92FF920F931F93CF93DF93EC017901FA
:100560008D81833039F089E0440F551F661F771F56
:100570008A95D1F79A01AB0161E1CE010E94600238
:10058000882319F080E3888338C00E943A0D8B01DC
:100590000E94E30D8C838F3F49F40E943A0D601B4B
:1005A000710B6D327140A0F384E503C08E3F31F0D2
:1005B00080E58883CE010E94EA0D1FC08FEF8EBDBB
:1005C000F701D701A150BE4F9FEF0DB407FEFDCF3D
:1005D0008EB59EBD8193EA17FB07B9F70DB407FEF0
:1005E000FDCF8EB58C931C820E94E30D0E94E30D1B
:1005F000CE010E94EA0D81E004C0CE010E94EA0D06
:1006000080E0DF91CF911F910F91FF90EF900895BF
:10061000CF92DF92EF92FF921F93CF93DF93EC0183
:100620006A017B01122F8B819C81AD81BE81841771
:100630009507A607B707F1F0CE010E94AC00811123
:1006400003C080E090E01CC012FF06C01882CB827D
:10065000DC82ED82FE820EC0E981FA819E01295F73
:100660003F4FB701A601808191810E94A8028111AC
:10067000EDCFE7CF13708881182B1883CE01079632
:10068000DF91CF911F91FF90EF90DF90CF90089571
:100690008F929F92AF92BF92CF92DF92EF92FF9292
:1006A0000F931F936A017B0148015901FC012581C9
:1006B000203251F5448955896689778997018601E9
:1006C000E7E03695279517950795EA95D1F7400FFE
:1006D000511F621F731F23E080960E94080300973A
:1006E00011F480E02DC0E894C7F8DD24EE24FF2447
:1006F000CC0CDD1CCC0CDD1CFC01EC0DFD1D808246
:100700009182A282B3821BC0203159F7FC01448937
:100710005589668977894D0D511D611D711D23E035
:1007200080960E9408030097E1F2DD24EE24FF2466
:10073000CC0CDD1CFC01EC0DFD1D9182808281E062
:100740001F910F91FF90EF90DF90CF90BF90AF90EF
:100750009F908F900895CF92DF92EF92FF920F9328
:100760001F93CF93DF93EC016A017B0189018D8197
:10077000803251F58C899D89AE89BF89E7E07695F5
:10078000679557954795EA95D1F7480F591F6A1F06
:100790007B1F22E0CE0180960E940803009711F48F
:1007A0008FEF40C0E894C7F8DD24EE24FF24CC0C82
:1007B000DD1CCC0CDD1CFC01EC0DFD1D808191814C
:1007C000A281B381BF701DC0803151F74C895D8912
:1007D0006E897F894D0D511D611D711D22E0CE0175
:1007E00080960E9408030097D9F2DD24EE24FF24AE
:1007F000CC0CDD1CFC01EC0DFD1D80819181A0E085
:10080000B0E0488D598D6A8D7B8D481759076A076E
:100810007B0738F0F80180839183A283B38381E062
:1008200001C080E0DF91CF911F910F91FF90EF9079
:10083000DF90CF9008954F925F926F927F928F9248
:100840009F92AF92BF92CF92DF92EF92FF920F935F
:100850001F93CF93DF93EC014A015B014C845D84CD
:100860006E847F84A881AA2309F491C0488959899C
:100870006A897B8984169506A606B70609F48DC099
:1008800081149104A104B10429F41C861D861E86DE
:100890001F8678C0A3FF0BC0088D198D2A8D3B8D54
:1008A000081519052A053B0508F471C014C0A5FFF9
:1008B00012C0EE81FF818681978125E0880F991F04
:1008C0002A95E1F7A0E0B0E088159905AA05BB05D7
:1008D00008F45DC057C0EE81FF81848190E00996E5
:1008E0008A019B010150110921093109082E04C018
:1008F00036952795179507950A94D2F775016401E7
:10090000B1E0CB1AD108E108F10804C0F694E794ED
:10091000D794C7948A95D2F7C016D106E206F3069B
:1009200020F0452B462B472B81F4A6FF05C0848D74
:10093000958DA68DB78D04C08C8D9D8DAE8DBF8D90
:100940008C879D87AE87BF8704C0C01AD10AE20A90
:10095000F30A8E01045F1F4FC114D104E104F104B6
:1009600089F04C855D856E857F8598018E819F819C
:100970000E94AB0391E0C91AD108E108F1081816EA
:100980005CF305C0888A998AAA8ABB8A06C04C860D
:100990005D866E867F8680E001C081E0DF91CF9129
:1009A0001F910F91FF90EF90DF90CF90BF90AF908D
:1009B0009F908F907F906F905F904F9008953F929F
:1009C0004F925F926F927F928F929F92AF92BF925F
:1009D000CF92DF92EF92FF920F931F93CF93DF930B
:1009E000CDB7DEB728970FB6F894DEBF0FBECDBFE8
:1009F0004C01DC0112968C911297806812968C93B0
:100A000012971C964D905D906D907C901F97169656
:100A1000AD90BC901797411451046104710461F4C6
:100A2000D50118968D919D910D90BC91A02D8D832F
:100A30009E83AF83B88704C04D825E826F827886C2
:100A4000CD80DE80EF80F884BFEFCB1ADB0AEB0AA3
:100A5000FB0AF501808D918DA28DB38D8C159D05BE
:100A6000AE05BF0528F482E0C82ED12CE12CF12C74
:100A70009E012F5F3F4FB701A601C5010E94AB0346
:100A800087FD20C0882341F089819A81AB81BC8198
:100A9000892B8A2B8B2B51F08D819E81AF81B8855C
:100AA000C816D906EA06FB0679F60CC00FEF1FEF51
:100AB0002FEF3FE0B701A601C5010E944803382E81
:100AC000811102C0312C1BC0411451046104710416
:100AD00051F097018601B301A201C5010E944803AC
:100AE000811108C0EFCFD5011896CD92DD92ED921D
:100AF000FC921B97F401C486D586E686F786832D83
:100B000028960FB6F894DEBF0FBECDBFDF91CF9110
:100B10001F910F91FF90EF90DF90CF90BF90AF901B
:100B20009F908F907F906F905F904F903F9008952F
:100B30002F923F924F925F926F927F928F929F92ED
:100B4000AF92BF92CF92DF92EF92FF920F931F93DB
:100B5000CF93DF93CDB7DEB72D970FB6F894DEBFF6
:100B60000FBECDBFFC013B018A01DA0111960D9049
:100B7000BC91A02DB887AF83DB018C91807709F4FD
:100B8000A8C380818111A5C3DA019C91937009F4F7
:100B900094C38F8198850C966DE070E00E948A1551
:100BA0006F5F6D832E8348011F0140E050E0BA0162
:100BB000C3010E941B04B12CA12CC12CD12C00E03C
:100BC00010E01D867401B6E0EB0EF11CF301808984
:100BD0009189A289B3899C01AD0165E0569547953D
:100BE000379527956A95D1F729873A874B875C8790
:100BF00049845A8461E0C3010E94EF00009739F4F0
:100C0000D30111968C91882309F4A7C062C3FC011B
:100C10002081253E11F021110BC0011102C0B984C1
:100C2000AA84FD810F1708F40F5F211106C095C03B
:100C30003D81031708F444C303C0253E09F43FC0B7
:100C40002E32E9F1DC011B963C911B973F3009F0F5
:100C500057C0111108C026FFB9CF122F1F711D9662
:100C6000CC90D12E07C0DA942D1129C0FC01258526
:100C7000C21225C04D2D50E041505109FDE0F49FB6
:100C80009001F59F300D11244F81588524173507A9
:100C9000B0F4FC0160E0653018F48181928107C0F6
:100CA0006B3018F48481958102C086819781AF8171
:100CB000B8852A173B0729F4892B09F487CF10E060
:100CC00085CF8F3F910509F0D0F74FEB480F4A31A0
:100CD00010F0782F02C070E2780FC9010196D4019C
:100CE00013964D915C911497DA01A20FB31F2C91CA
:100CF0003FEB320F3A3108F4205E7213E0CFE2C2CC
:100D000033FDDDCF1123B1F0B1E0DB12E2C2FC0113
:100D1000AC01455F5F4F90E060E8969F9001112421
:100D20009695922B2191920FE417F507A9F79C1144
:100D3000D0C20FC04BE050E0B7010E94A915892B2B
:100D400009F044CFD4018C9180FF03C0E1E0ED872E
:100D50003DCFBE81B7FFE8C1BCC28E8182748234B0
:100D600009F0B7C2002351F04B2C5A2C07C060E0A9
:100D7000C3010E94EF00892B29F00F5FFD810F173F
:100D8000B0F376C0F3018181882309F471C0A1C258
:100D9000D3018C9185FD9DC250968D919D910D90B2
:100DA000BC91A02D81159E4FAF41B10508F091C2B5
:100DB000C3010E94DF04882309F48BC2D301169675
:100DC000ED91FC9117971C96CD90DD90ED90FC90E5
:100DD0001F97B2E0CB1AD108E108F108048004C0E3
:100DE000CC0CDD1CEE1CFF1C0A94D2F78089918983
:100DF000A289B389C80ED91EEA1EFB1E25E0B701E1
:100E0000A601CF0180960E9408035C01009709F4B7
:100E100060C2FC0120E032E0119221503040E1F745
:100E200011E0F3010680F781E02DFA87E9878281DE
:100E3000181718F190E0A0E0B0E029E0880F991FA2
:100E4000AA1FBB1F2A95D1F7F301408951896289F6
:100E50007389840F951FA61FB71F808B918BA28B60
:100E6000B38BA985BA8512968C918230C0F4005F4D
:100E7000ED810E1708F48CCF12C09501B701A601C1
:100E8000410F511D611D711DA985BA858D919C91E0
:100E90000E94FF0D882309F41CC21F5FC2CFBD85CD
:100EA000BB2309F470C0D4011596DC9002E010E079
:100EB0008EE7C82E7401B6E0EB0EF11C3FC0F3E0E4
:100EC000FD1510F4A3E0DA2E94E09D0D822F8F70B3
:100ED000E92FF0E08A3008F04FC0805DE80DF91D81
:100EE0008683F4E036952795FA95E1F79150D91667
:100EF00068F3F401ED0DF11DC68240E050E0BA0147
:100F0000C3010E941B0461E0C3010E94EF0000972F
:100F1000A9F1FC0120812223B1F1238523FDF3CF28
:100F20004BE050E0BC01C7010E94A915892B59F77D
:100F30000F5F1F4F0436110509F4CBC1F401818105
:100F400092819801280F391F0380F481E02D8E0FC4
:100F50009F1FE817F90709F4B2CFA901B5E0440FC4
:100F6000551FBA95E1F7240F351F4191042E000C4F
:100F7000550B24273527EDCF895CB0CFD3011196CF
:100F80008C918111A6C1A20160E070E0E5E0440F00
:100F9000551F661F771FEA95D1F7C3010E941B04F6
:100FA000882309F496C11D811150012F3FE0B32E13
:100FB0007401F6E0EF0EF11C640121E1C20ED11CB8
:100FC0004DE0A42E002309F467C060E0C3010E9435
:100FD000EF00FC01892B09F47CC1D30116962D91F9
:100FE0003C911797D90190968C919097816090963B
:100FF0008C93602F011301C060646083B3861486F4
:10100000D70120E030E8239FC00111242695282B2A
:101010009D91290FAC15BD05A9F72587138E128E5A
:10102000D40113964D915C9114976F7170E06150EB
:101030007109A69E9001A79E300D112460E08F815A
:1010400098852817390740F4DA01A20FB31F8C9155
:10105000082E000C990B0CC081E090E0AF81B885A0
:101060002A173B0711F480E090E091958195910952
:10107000653018F49283818307C06B3018F4958330
:10108000848302C0978386836F5F2F5F3F4F3296C2
:101090006D30A9F6015096CFF301408951896289DC
:1010A000738925E076956795579547952A95D1F7E9
:1010B0002A0160E0C3010E94EF00009709F409C112
:1010C00020E2DC011D922A95E9F7F40136962BE027
:1010D000DC0101900D922A95E1F7F401208128713D
:1010E000DC011C962C931C9721E238E251963C932C
:1010F0002E93509740E058E01F965C934E931E97B6
:1011000053963C932E93529759963C932E9358970F
:1011100057965C934E935697D3011696ED91FC919A
:10112000179780A1816080A380E2F10111928A95D6
:10113000E9F7D3011696ED90FC901797F101F7822D
:10114000E682558244825C968D919D910D90BC9172
:10115000A02D80879187A287B387F201EF70FF27C8
:10116000D701979695E0EE0FFF1F9A95E1F79D0145
:101170002E0F3F1FD9011B968C9183FF03C0F101F5
:101180001082A7C0C7018E0F9F1FDC01D2968C91E1
:101190008771D1018C93D9011B969C91987119F498
:1011A0008860D1018C93D10113961C9313978E8183
:1011B000827319F08C91817111F78E818F70D1013A
:1011C00012968C93D70193964D915D916D917C9180
:1011D0009697D10154964D935D936D937C93579759
:1011E000EE0DFF1D83AC94ACA12CB12CB40155279E
:1011F00044279F012F5B3F4FD9018D909C90A12CDC
:10120000B12C842A952AA62AB72ABE81B4FF33C0FE
:1012100081149104A104B10409F45DC09E012F5F03
:101220003F4FB501A401C7010E94AB03D82E87FD33
:10123000A6CF00E010E09801B501A401C7010E940B
:101240004803882309F49BCFF701408551856285C7
:10125000738584169506A606B70620F480869186C7
:10126000A286B38689809A80AB80BC80D110D6CF0D
:10127000811131C084CFD1015C968D929D92AD9247
:10128000BC925F97ED5BFF4F80819181A281B3811A
:10129000F101808F918FA28FB38FFE81F5FF20C067
:1012A000D10158964D915D916D917C915B97C101F3
:1012B0000E941B04811114C062CFB1E0BD8372CCC7
:1012C00000E0BECC6F5F32966D3009F47FCC9C019C
:1012D000E2CC80E006C0F101828180688283DDCFAC
:1012E00081E02D960FB6F894DEBF0FBECDBFDF9123
:1012F000CF911F910F91FF90EF90DF90CF90BF9013
:10130000AF909F908F907F906F905F904F903F90A5
:101310002F900895CF93DF93FC012081211102C00B
:1013200081E046C0EC01828187FF3AC0448955893B
:10133000668977898681978121E080960E940803DB
:10134000009729F489818160898380E031C0EC8134
:10135000FD81EF70FF2725E0EE0FFF1F2A95E1F7D3
:10136000DC01AE0FBF1F2C91253E61F3288123FFC6
:101370000AC0488D598D6A8D7B8D5C964D935D9327
:101380006D937C935F974C8D5D8D6E8D7F8DE80F97
:10139000F91F538F428F758B648B8A818F778A8375
:1013A0008E819F8180960E94AC00882359F2B8CF2D
:1013B000DF91CF9108952F923F924F925F926F925B
:1013C0007F928F929F92AF92BF92CF92DF92EF92D5
:1013D000FF920F931F93CF93DF93EC015B014A01C0
:1013E000888183FF0EC08A8181FF0BC082FF0FC0FE
:1013F000488D598D6A8D7B8DCE010E941B04811111
:1014000006C08981816089838FEF9FEF08C1A401A5
:1014100060E070E088899989AA89BB898095909558
:10142000A095B09584179507A607B70750F36401F8
:101430001E018CE0280E311C088919892A893B89F4
:10144000C114D10409F4D0C08E819F81B901A801D3
:1014500029E076956795579547952A95D1F7DC0150
:101460001396FC90F4221170F11034C0011511058F
:1014700089F54C855D856E857F8541155105610532
:10148000710569F091010E94AB0387FDBACF81110C
:1014900021C0CE010E94DF0481111CC0B2CF8C8D0F
:1014A0009D8DAE8DBF8D0097A105B10579F4CE015C
:1014B0000E94DF04882309F4A4CF8C859D85AE8526
:1014C000BF858C8F9D8FAE8FBF8F04C08C879D870B
:1014D000AE87BF87EE81FF814C855D856E857F85F8
:1014E0004250510961097109048004C0440F551F1D
:1014F000661F771F0A94D2F780899189A289B389E0
:10150000480F591F6A1F7B1F4F0D511D611D711D13
:101510000115110521F4C114B2E0DB06B0F580E03D
:1015200092E0801B910B76018C159D0508F47C01DF
:101530000115110579F4488859886A887B88888D57
:10154000998DAA8DBB8D481659066A067B0610F048
:1015500025E001C021E0CF0180960E94080300979A
:1015600009F44FCFA701B501800F911F0E94B61556
:101570000E0D1F1D0115124031F58E819F81809641
:101580000E94AC0081111FC03CCF83A194A1A5A1F2
:10159000B6A184179507A607B70741F410A28FEFED
:1015A0009FEFDC0183A394A3A5A3B6A3EE81FF81E3
:1015B0009501808191810E94FF0D882309F421CF3C
:1015C000E12C82E0F82E88899989AA89BB898E0D41
:1015D0009F1DA11DB11D888B998BAA8BBB8BAE0C57
:1015E000BF1CCE18DF0828CF888D998DAA8DBB8DA2
:1015F00080179107A207B30738F4088F198F2A8F35
:101600003B8F8A8180688A838A8183FD02C0C401FE
:1016100006C0CE010E948A098111F9CFF2CEDF9176
:10162000CF911F910F91FF90EF90DF90CF90BF90DF
:10163000AF909F908F907F906F905F904F903F9072
:101640002F9008950C960C94DB097F928F929F92B5
:10165000AF92BF92CF92DF92EF92FF920F931F93C0
:10166000CF93DF93CDB7DEB7E8970FB6F894DEBF20
:101670000FBECDBF809136019091370101969093B6
:101680003701809336019F938F9387E191E09F9379
:101690008F938E01035D1F4F1F930F930E94C615FA
:1016A0001D861E861C821B8288EE93E0A0E0B0E0BF
:1016B0008D839E83AF83B88789E091E09A83898385
:1016C000B801CE010D960E94971080E2FE013D9672
:1016D000A2E7B1E001900D928A95E1F78B819C81A0
:1016E00090936901809368018D819E81AF81B88557
:1016F00080936A0190936B01A0936C01B0936D018C
:1017000089859A85AB85BC8580936E0190936F0126
:10171000A0937001B09371010F900F900F900F90F4
:101720000F900F9087E1E82E81E0F82E98EE892E39
:1017300093E0992EA12CB12C29E0C22E21E0D22ECB
:1017400030E2732E8091720181114EC0809136017A
:1017500090913701019690933701809336019F93C2
:101760008F93FF92EF921F930F930E94C6151D86D1
:101770001E861C821B828D829E82AF82B886DA8290
:10178000C982B801CE010D960E949710FE013D96C8
:10179000A2E7B1E0872D01900D928A95E1F78B8148
:1017A0009C8190936901809368018D819E81AF81B6
:1017B000B88580936A0190936B01A0936C01B093FC
:1017C0006D0189859A85AB85BC8580936E01909368
:1017D0006F01A0937001B09371010F900F900F9063
:1017E0000F900F900F90AECF4CE250E06AE371E0A3
:1017F00086E691E00E94220BE8960FB6F894DEBFD1
:101800000FBECDBFDF91CF911F910F91FF90EF9051
:10181000DF90CF90BF90AF909F908F907F90089572
:10182000CF93DF931F92CDB7DEB7698341E050E0DD
:10183000BE016F5F7F4F0C960E94DB090F90DF9116
:10184000CF9108950C960C948A090895CF92DF9257
:10185000EF92FF920F931F93CF93DF936C017A0166
:101860008B01C0E0D0E0CE15DF0589F0D8016D9185
:101870008D01D601ED91FC910190F081E02DC60122
:101880000995892B11F47E0102C02196ECCFC70186
:10189000DF91CF911F910F91FF90EF90DF90CF904C
:1018A00008953FB7F8948091970190919801A09185
:1018B0009901B0919A0126B5A89B05C02F3F19F058
:1018C0000196A11DB11D3FBFBA2FA92F982F8827C0
:1018D000820F911DA11DB11DBC01CD0143E0660F1A
:1018E000771F881F991F4A95D1F708950E94A41564
:1018F00090E0FC01EC55FF4F3491FC01E057FF4FA5
:101900002491FC01E458FF4FE491EE2309F43BC01D
:10191000332339F1333091F038F43130A9F03230DB
:1019200001F584B58F7D12C0373091F03830A1F0C9
:101930003430B9F4809180008F7D03C080918000A5
:101940008F77809380000DC084B58F7784BD09C0E8
:101950008091B0008F7703C08091B0008F7D80931D
:10196000B000F0E0EE0FFF1FEE58FF4FA591B491CD
:101970008FB7F894EC91611103C020952E2301C01C
:101980002E2B2C938FBF0895CF93DF9390E0FC0113
:10199000E057FF4F2491FC01E458FF4F84918823C6
:1019A00061F190E0880F991FFC01E859FF4FC59144
:1019B000D491FC01EE58FF4FA591B491611109C07B
:1019C0009FB7F8948881209582238883EC912E23F9
:1019D0000BC0623061F49FB7F8943881822F8095F4
:1019E00083238883EC912E2B2C939FBF06C08FB747
:1019F000F894E8812E2B28838FBFDF91CF91089533
:101A00008F929F92AF92BF92CF92DF92EF92FF920E
:101A10006B017C010E94510C4B015C01C114D1048B
:101A2000E104F104F1F00E94510CDC01CB018819B2
:101A30009909AA09BB09883E9340A105B10570F335
:101A400021E0C21AD108E108F10888EE880E83E08F
:101A5000981EA11CB11CC114D104E104F10419F7B2
:101A6000DDCFFF90EF90DF90CF90BF90AF909F9031
:101A70008F9008952FB7F89460919301709194011D
:101A800080919501909196012FBF08951F920F921A
:101A90000FB60F9211242F933F938F939F93AF9381
:101AA000BF938091930190919401A0919501B09181
:101AB00096013091920126E0230F2D3720F40296F3
:101AC000A11DB11D05C029E8230F0396A11DB11D5D
:101AD000209392018093930190939401A093950198
:101AE000B09396018091970190919801A0919901EE
:101AF000B0919A010196A11DB11D80939701909319
:101B00009801A0939901B0939A01BF91AF919F91D1
:101B10008F913F912F910F900FBE0F901F901895AE
:101B20001F920F920FB60F9211242F933F934F9352
:101B30005F936F937F938F939F93AF93BF93EF9335
:101B4000FF93E0910201F09103010995FF91EF915C
:101B5000BF91AF919F918F917F916F915F914F91C5
:101B60003F912F910F900FBE0F901F9018951F92CD
:101B70000F920FB60F9211242F933F934F935F93C1
:101B80006F937F938F939F93AF93BF93EF93FF9345
:101B9000E0910001F09101010995FF91EF91BF9152
:101BA000AF919F918F917F916F915F914F913F91F5
:101BB0002F910F900FBE0F901F9018958EBD0DB4F2
:101BC00007FEFDCF08958FEF8EBD0DB407FEFDCF4C
:101BD0008EB50895CF93DF93FC012381222361F01A
:101BE000EC010180F281E02D61E082810E94780C9D
:101BF0008FEF0E94DE0D1B82DF91CF9108950F932E
:101C00001F93CF93DF93EC0189018D81833039F0ED
:101C100089E0440F551F661F771F8A95D1F79A01F7
:101C2000AB0168E1CE010E946002882311F082E3DB
:101C30002DC08EEF0E94DE0DF80180818EBD818166
:101C400032961E5F0DB407FEFDCF8EBDE017F10783
:101C500011F08191F7CF0DB407FEFDCF8FEF0E94F9
:101C6000DE0D8FEF0E94DE0D0E94E30D8C838F71DD
:101C7000853031F086E58883CE010E94EA0D07C0E9
:101C80000E94930F182F811107C089E58883CE0128
:101C90000E94EA0D10E012C020E030E0A9016DE0E2
:101CA000CE010E946002811104C00E94E30D8823CE
:101CB00011F089E2EBCFCE010E94EA0D812FDF9176
:101CC000CF911F910F9108958F929F92AF92BF92E3
:101CD000CF92DF92EF92FF92CF93C82F1092A2047F
:101CE00081E090E0A0E0B0E08093A5049093A6048A
:101CF000A093A704B093A8048DE994E09093BF0447
:101D00008093BE041092BD048FEF9FEFDC0180939F
:101D1000C0049093C104A093C204B093C304CC2325
:101D200031F1C53008F0DCC020E040E050E0BA01FD
:101D30008DEB94E00E940803009709F4D1C020E1E4
:101D4000C29F800D911D11244097FC01E254FE4F6B
:101D500020812F7709F0C4C0389680809180A280BE
:101D6000B38081149104A104B10421F4B9C0812C81
:101D7000912C540120E0B501A4018DEB94E00E9468
:101D80000803FC01892B09F4ABC083859485811578
:101D9000924009F0A5C08089823009F0A1C0468533
:101DA00057854115510509F49BC0258520939F0453
:101DB0008FEF820F8093A00480E091E0291751F00B
:101DC00031E0380F393019F48093A10489C0990F9C
:101DD000832FF4CF8093A104C688D788C114D1047F
:101DE00019F0E12CF12C04C0C4A0D5A0E6A0F7A006
:101DF000C092A904D092AA04E092AB04F092AC0481
:101E0000D501C401840F951FA11DB11D8093B1049C
:101E10009093B204A093B304B093B404218932899F
:101E20003093A4042093A304CC0CDD1CEE1CFF1CF7
:101E3000C80ED91EEA1EFB1EC092B904D092BA0485
:101E4000E092BB04F092BC0455E0220F331F5A9578
:101E5000E1F721503E4F232F33272695C20ED31E84
:101E6000E11CF11CC092AD04D092AE04E092AF042C
:101E7000F092B004238934892115310521F0C9017C
:101E8000A0E0B0E004C080A191A1A2A1B3A1B501DE
:101E9000A4014C195D096E097F09480F591F6A1F7B
:101EA0007B1F0090A10404C07695679557954795D0
:101EB0000A94D2F7DB01CA010196A11DB11D8093DE
:101EC000B5049093B604A093B704B093B804453F0B
:101ED0008FE058076105710528F48CE08093A20417
:101EE00080E017C0453F5F4F6105710510F480E148
:101EF0000DC084A595A5A6A5B7A58093B904909318
:101F0000BA04A093BB04B093BC0480E28093A20403
:101F100081E0CF91FF90EF90DF90CF90BF90AF9096
:101F20009F908F900895CF93DF930E943A0DEB011D
:101F30000E94E30D8F3F49F00E943A0D6C1B7D0B10
:101F400069357240A8F380E001C081E0DF91CF9154
:101F500008958F929F92AF92BF92DF92EF92FF927D
:101F60000F931F93CF93DF93EC017B01988199230B
:101F700009F442C08A8180FF3FC093FF48C0488D6A
:101F8000598D6A8D7B8D088919892A893B89401B67
:101F9000510B620B730B423051056105710590F1D5
:101FA000488959896A897B898A01117095FD48C0E1
:101FB000EE81FF81D3804A015B0189E0B694A7944A
:101FC000979487948A95D1F7D8200115110509F0C7
:101FD00064C0D11062C0452B462B472B09F442C088
:101FE0004C855D856E857F859E01245F3F4FCF01C7
:101FF0000E94AB0387FF46C08981826089838FEF8F
:102000009FEF89C0452B462B472B51F610C095FFFB
:10201000C7CFEE81FF818681978125E0880F991FC8
:102020002A95E1F7288939898217930719F480E006
:1020300090E06DC0488959896A897B898A0111704D
:1020400099E076956795579547959A95D1F7EE81E2
:10205000FF81848D958DA68DB78D480F591F6A1FFE
:102060007B1F39C096FF05C0848D958DA68DB78DD9
:1020700004C08C8D9D8DAE8DBF8D8C879D87AE8766
:10208000BF870BC0811109C08881807709F4B4CF64
:1020900081E090E021E030E03CC0EE81FF814C85A2
:1020A0005D856E857F854250510961097109048003
:1020B00004C0440F551F661F771F0A94D2F780890A
:1020C0009189A289B389480F591F6A1F7B1F4D0D43
:1020D000511D611D711D8E819F8120E080960E949F
:1020E0000803009709F488CFFC01E00FF11F8081FD
:1020F000F701808388899989AA89BB890196A11DE6
:10210000B11D888B998BAA8BBB8B81E090E020E07E
:1021100030E0821B930BDF91CF911F910F91FF90C5
:10212000EF90DF90BF90AF909F908F9008952F9287
:102130003F924F925F926F927F928F929F92AF9257
:10214000BF92CF92DF92EF92FF920F931F93CF93A4
:10215000DF93CDB7DEB7E3970FB6F894DEBF0FBEBF
:10216000CDBF7C018B0119821A82FC018081811113
:1021700074C18091C406807709F46FC1FB0180812E
:102180008F32C9F48F0181918F32E1F36091CA06D9
:102190007091CB06811104C0C7010E94900162C1F9
:1021A000CE0101960E949001882309F456C1BE0118
:1021B0006F5F7F4F02C064EC76E06E01F2E3CF0EFA
:1021C000D11CD8010F5F1F4F8C918032D1F3BDA37A
:1021D000ACA3FD019F012A1B3B0B81918823D9F001
:1021E0008F32C9F08C3509F438C1982F977F92321D
:1021F00009F433C18A3309F430C1982F9F7B9C3393
:1022000009F42BC192EC980F923008F426C1805249
:102210008F3500F322C1AD01420F531FCA018C015B
:10222000FC016190CF01F0E26F16C9F32FE2621654
:10223000B1F39A012A1B3B0B4A175B0741F0FA01E5
:102240008291AF018E32A9F3803299F303C01BAAA9
:102250001AAA07C03BAB2AAB2F3F310511F00CF097
:10226000FCC08AA99BA99BA38AA3CE018796FC01E7
:1022700020E22193CF01EC15FD05C9F7CD019C01AA
:102280002A1B3B0BFC014191CF014E32C1F340327E
:10229000B1F381E02115310509F080E04AA95BA97D
:1022A0004150510938F05D01A40EB51EF501908131
:1022B0009E32B1F77EA097E0892E312C512C912CC3
:1022C000E8E04E2EEAA9FBA92E173F070CF07FC0CD
:1022D0005D01A20EB31EF5019081903209F465C034
:1022E0009E3229F44217530709F05FC004C09232AE
:1022F000E1F09C37D1F0F6EDBF2EB90EF5E0FB15FD
:1023000010F09D3291F4E6ECBE2EB90EE5E0EB152F
:1023100060F4F5EABF2EB90EF2E0FB1530F4EFEDF4
:10232000BE2EB90EEDE5EB1520F42417350781F428
:1023300040C024173507E9F1831440F1B92EFFE9B5
:10234000AF2EA90EF9E1FA1548F0905294280CC06E
:102350008314E0F080E09FE5EFE5BE2EEFEBBE0ECC
:10236000F9E1FB1508F0542822242394230CE7E21A
:10237000AE2EB12CAC0EBD1EA30CB11CF50190838A
:10238000F6E0F215A0F0722C322C1EC08AE08816FE
:1023900009F465C0421753070CF461C09A01FAE0D2
:1023A0008F2E88E0382E90E1492E80E00DC0322C2F
:1023B0000BC0FAE08F1609F452C09A01FAE08F2E92
:1023C00098E0392EE0E14E2E2F5F3F4F7BCF7EA26B
:1023D0009FA1903209F441C0882339F0592011F4AB
:1023E000892D01C082E089A314C081E089A38EA158
:1023F00090E0E7E2F0E0EC0FFD1FE80FF91F2EE799
:102400002083E8E2F0E0EC0FFD1FE80FF91F21E365
:1024100020836620D1F021E0AE014F5D5F4FC70100
:102420000E9498058823C9F0F701DE01119680E229
:1024300001900D928A95E1F7C7010E948A09F70180
:102440001082BE016F5F7F4FBCCE22ECAE014F5DAC
:102450005F4FC7010E94980505C080E003C07EA2BF
:1024600080E0B6CFE3960FB6F894DEBF0FBECDBFC7
:10247000DF91CF911F910F91FF90EF90DF90CF9060
:10248000BF90AF909F908F907F906F905F904F9094
:102490003F902F90089584EE96E090939E04809351
:1024A0009D0484EC96E00E948A091092C40681E0A3
:1024B0000E94640E882349F06DE974E084EC96E094
:1024C0000E949001882391F006C080E00E94640E73
:1024D0008111F2CF0BC09091C406907739F024ECB3
:1024E00036E03093EE062093ED06089580E00895DF
:1024F0008F929F92AF92BF92FF920F931F93CF93B1
:10250000DF93F82E092F1092E7061092E40610923E
:10251000E9068AEE96E09093E6068093E5060E942F
:102520003A0D4B015C01C091E506D091E6068AE0C8
:102530008A8361E00E94C40C61E08A810E94780C69
:102540000E94AA01E091E506F091E60682E580830B
:1025500081E0818384EE96E00E944702E091E506E7
:10256000F091E60661E082810E94780CDAE08FEF5C
:102570000E94DE0DD150D9F7E401E091E506F0911B
:10258000E60660E082810E94780C20E030E0A9013C
:1025900060E084EE96E00E946002813049F00E9483
:1025A0003A0D6C1B7D0B613D774078F380E258C09B
:1025B0002AEA31E040E050E068E084EE96E00E94D4
:1025C0006002853011F481E00AC014E00E94E30D3E
:1025D0008093E8061150D1F78A3A59F482E080934B
:1025E000E9068091E906823069F0812C912C540132
:1025F0000EC00E943A0D6C1B7D0B613D7740C0F20E
:1026000085E22EC0812C912CA12C80E4B82E20E0F4
:1026100030E0A90167E384EE96E00E946002A50124
:10262000940169E284EE96E00E946002882349F0FA
:102630000E943A0D6C1B7D0B613D774040F383E4B3
:102640000FC08091E906823009F520E030E0A90151
:102650006AE384EE96E00E946002882349F087E3F3
:102660008093E40684EE96E00E94EA0D80E019C0B3
:102670000E94E30D807C803C19F483E08093E9069E
:102680000E94E30D0E94E30D0E94E30D84EE96E0AC
:102690000E94EA0DE091E506F091E606F0820183E2
:1026A00081E0DF91CF911F910F91FF90BF90AF908C
:1026B0009F908F9008951092A2041092C4061092D9
:1026C000C50684E68093E4061092E90680E58093CF
:1026D000EA0681E08093EB06E6E6F1E014861586D3
:1026E0001382128288EE93E0A0E0B0E084839583A9
:1026F000A683B78389E091E09183808308956C017C
:10270000990FEE08FF0861E084E00E94780CC70191
:10271000B6010E94000D60E084E00E94780CC701C1
:10272000B6010E94000DEFCF789484B5826084BD1D
:1027300084B5816084BD85B5826085BD85B58160C5
:1027400085BD80916E00816080936E001092810043
:1027500080918100826080938100809181008160FE
:1027600080938100809180008160809380008091BF
:10277000B10084608093B1008091B000816080934B
:10278000B00080917A00846080937A0080917A0012
:10279000826080937A0080917A008E7F80937A00A5
:1027A00080917A00806880937A001092C10060EA7C
:1027B0007FE080E090E00E94000D61E084E00E94F4
:1027C000C40C61E084E00E94780C62E082E00E9428
:1027D000C40C62E083E00E94C40C68EE73E080E009
:1027E00090E00E94000D80917A008F7780937A00AC
:1027F00061E271E08AE391E00E94BF1566E271E058
:1028000082E491E00E94BF156BE271E086E491E002
:102810000E94BF1580E190E0A0E0B0E080934A0103
:1028200090934B01A0934C01B0934D0181E090E057
:1028300090934F0180934E0183E090E0909351017B
:102840008093500180E895E2A0E0B0E080935601CB
:1028500090935701A0935801B093590186E090E0FE
:1028600090935B0180935A0180E496E0A0E0B0E091
:102870008093520190935301A0935401B09355015A
:1028800080E190E090935D0180935C0160E371E0F2
:102890008EE591E00E94BF1580E091EEA0E0B0E0EF
:1028A0008093620190936301A0936401B0936501EA
:1028B00084E291EEA0E0B0E080933E0190933F016E
:1028C000A0934001B093410161E089E00E94C40CF3
:1028D00061E089E00E94780C61E08DE00E94C40C08
:1028E00061E08BE00E94C40C60E08CE00E94C40CAC
:1028F00080E591E00E947812811103C088EE93E098
:1029000011C00E944B128823C9F30E94AA0180E5DE
:1029100090E00E9444028FE00E942E02833421F056
:1029200080ED97E00E947F1360E084E00E94780CC5
:1029300060EA80E20E941A026AE382E20E941A02BE
:102940006CE081E30E941A026FE782E30E941A02A0
:1029500060E883E30E941A0268E083E20E941A02A0
:1029600088E890E0909301018093000180916900D4
:102970008C7F826080936900E89A0E94E001E89869
:1029800085E29CE0909301018093000180E591E055
:102990000E947812811103C082E390E0C3CF0E94AD
:1029A0004B128823C9F30E94250B60E481E20E9448
:1029B0001A0264E670E080E090E00E94000D6AE593
:1029C00080E20E941A026AE070E080E090E00E94DB
:1029D000000D60E88EE20E941A026AE070E080E07A
:1029E00090E00E94000D62E082E20E941A026AE01A
:1029F00070E080E090E00E94000D62E084E20E94BE
:102A00001A026AE070E080E090E00E94000D60EC45
:102A100085E20E941A0260E0E62E60E0F62E8091C8
:102A20009B0490919C04092E000CAA0BBB0B8B34C9
:102A30009105A105B10508F058C08FE20E942E0251
:102A4000C82F80E30E942E02C5FBCC27C0F91C2FA3
:102A500000E0802B912B9C01220F331F820F931FCC
:102A600081389140DCF180910401882321F061E0FC
:102A700084E00E94780C80919B0490919C040196C4
:102A800090939C0480939B0460E089E00E94780C02
:102A900088EA0E941302CBE9D1E080E00E94130291
:102AA000D82E80E00E9413022D2D30E0382B359572
:102AB0002795359527952993399324E0CB39D2076B
:102AC00061F761E089E00E94780C40E053E06BE937
:102AD00071E082E791E00E94DB09AFCF60E084E023
:102AE0000E94780C0E94E0019ACF1092040110928B
:102AF0009C0410929B0482E791E00E948A09109244
:102B000072010E94250BE114F10409F488CF0E94A0
:102B1000000085CFAA1BBB1B51E107C0AA1FBB1F2A
:102B2000A617B70710F0A61BB70B881F991F5A9559
:102B3000A9F780959095BC01CD010895EE0FFF1F78
:102B40000590F491E02D099481E090E0F8940C94C4
:102B50009E18FB01DC0104C08D910190801921F4C5
:102B600041505040C8F7881B990B0895FB01DC01C8
:102B700002C001900D9241505040D8F70895FB01DA
:102B8000DC0101900D920020E1F70895AEE0B0E085
:102B9000ECECF5E10C9475180D891E8986E08C83A8
:102BA0001A8309838FEF9FE79E838D83AE01475E73
:102BB0005F4F6F89788DCE0101960E94E9152F81B4
:102BC0003885F801E20FF31F10822E96E4E00C9492
:102BD0009118ACE0B0E0EFEEF5E10C9467187C01E1
:102BE0006B018A01FC0117821682838181FFBDC1BE
:102BF000CE0101964C01F7019381F60193FD859179
:102C000093FF81916F01882309F4ABC1853239F4B8
:102C100093FD859193FF81916F01853229F4B7016E
:102C200090E00E94D117E7CF512C312C20E02032C8
:102C3000A0F48B3269F030F4803259F0833269F4B9
:102C400020612CC08D3239F0803339F4216026C0E8
:102C50002260246023C0286021C027FD27C030EDFA
:102C6000380F3A3078F426FF06C0FAE05F9E300D48
:102C70001124532E13C08AE0389E300D1124332EB8
:102C800020620CC08E3221F426FD6BC1206406C088
:102C90008C3611F4206802C0883641F4F60193FDA9
:102CA000859193FF81916F018111C1CF982F9F7DF5
:102CB0009554933028F40C5F1F4FFFE3F9830DC048
:102CC000833631F0833771F0833509F05BC022C061
:102CD000F801808189830E5F1F4F44244394512C57
:102CE000540115C03801F2E06F0E711CF801A0808C
:102CF000B18026FF03C0652D70E002C06FEF7FEF4B
:102D0000C5012C870E94C6172C0183012C852F77C3
:102D1000222E17C03801F2E06F0E711CF801A0805E
:102D2000B18026FF03C0652D70E002C06FEF7FEF1A
:102D3000C5012C870E94BB172C012C852068222EF0
:102D4000830123FC1BC0832D90E048165906B0F484
:102D5000B70180E290E00E94D1173A94F4CFF501D8
:102D600027FC859127FE81915F01B70190E00E94C9
:102D7000D11731103A94F1E04F1A5108411451041F
:102D800071F7E5C0843611F0893639F5F80127FF6F
:102D900007C060817181828193810C5F1F4F08C0E1
:102DA00060817181072E000C880B990B0E5F1F4FFD
:102DB0002F76722E97FF09C090958095709561953A
:102DC0007F4F8F4F9F4F2068722E2AE030E0A40182
:102DD0000E940918A82EA81844C0853729F42F7E10
:102DE000B22E2AE030E025C0F22FF97FBF2E8F36B9
:102DF000C1F018F4883579F0B4C0803719F08837FD
:102E000021F0AFC02F2F2061B22EB4FE0DC08B2D4C
:102E10008460B82E09C024FF0AC09F2F9660B92E87
:102E200006C028E030E005C020E130E002C020E12B
:102E300032E0F801B7FE07C0608171818281938121
:102E40000C5F1F4F06C06081718180E090E00E5FD3
:102E50001F4FA4010E940918A82EA818FB2DFF7768
:102E60007F2E76FE0BC0372D3E7FA51450F474FEE6
:102E70000AC072FC08C0372D3E7E05C0BA2C372D23
:102E800003C0BA2C01C0B52C34FF0DC0FE01EA0D01
:102E9000F11D8081803311F4397E09C032FF06C0F4
:102EA000B394B39404C0832F867809F0B39433FDB0
:102EB00013C030FF06C05A2CB31418F4530C5B181F
:102EC000B32CB31468F4B70180E290E03C870E9411
:102ED000D117B3943C85F5CFB31410F43B1801C05F
:102EE000312C34FF12C0B70180E390E03C870E9490
:102EF000D1173C8532FF17C031FD03C088E790E051
:102F000002C088E590E0B7010CC0832F867859F0A5
:102F100031FF02C08BE201C080E237FD8DE2B701D4
:102F200090E00E94D117A51438F4B70180E390E037
:102F30000E94D1175A94F7CFAA94F401EA0DF11D1B
:102F40008081B70190E00E94D117A110F5CF332006
:102F500009F451CEB70180E290E00E94D1173A9473
:102F6000F6CFF7018681978102C08FEF9FEF2C96F5
:102F7000E2E10C948318FC0105906150704001104F
:102F8000D8F7809590958E0F9F1F0895FC01615092
:102F9000704001900110D8F7809590958E0F9F1F7B
:102FA00008950F931F93CF93DF93FB01238121FD9E
:102FB00003C08FEF9FEF28C022FF16C046815781C4
:102FC000248135814217530744F4A081B1819D01CA
:102FD0002F5F3F4F318320838C93268137812F5F72
:102FE0003F4F3783268310C0EB01092F182F008431
:102FF000F185E02D0995892BE1F68E819F8101965F
:103000009F838E83812F902FDF91CF911F910F91FE
:103010000895FA01AA27283051F1203181F1E8946E
:103020006F936E7F6E5F7F4F8F4F9F4FAF4FB1E0BB
:103030003ED0B4E03CD0670F781F891F9A1FA11DB6
:10304000680F791F8A1F911DA11D6A0F711D811DB7
:10305000911DA11D20D009F468943F912AE0269F7C
:1030600011243019305D3193DEF6CF010895462FDB
:103070004770405D4193B3E00FD0C9F7F6CF462FBC
:103080004F70405D4A3318F0495D31FD4052419325
:1030900002D0A9F7EACFB4E0A695979587957795E2
:1030A0006795BA95C9F700976105710508959B0169
:1030B000AC010A2E06945795479537952795BA95F2
:1030C000C9F7620F731F841F951FA01D08952F92CB
:1030D0003F924F925F926F927F928F929F92AF92A8
:1030E000BF92CF92DF92EF92FF920F931F93CF93F5
:1030F000DF93CDB7DEB7CA1BDB0B0FB6F894DEBF8C
:103100000FBECDBF09942A88398848885F846E84B1
:103110007D848C849B84AA84B984C884DF80EE80FB
:10312000FD800C811B81AA81B981CE0FD11D0FB604
:10313000F894DEBF0FBECDBFED010895F894FFCF28
:10314000250C250C0100000000100C220BA9002208
:103150000C890038014E0146253036642E776176A1
:103160000052494646005741564500666D7420009E
:06317000646174610000BF
:00000001FF
